:020000040800F2
:1000000030060020ED010008933600085F2A000842
:1000100091360008750800087947000800000000C4
:100020000000000000000000000000004D3A000841
:100030007708000800000000953600084F3A0008D5
:10004000070200080702000807020008070200086C
:10005000070200080702000807020008070200085C
:10006000070200080702000807020008070200084C
:10007000070200080702000807020008070200083C
:100080000702000800000000F1070008070200084E
:10009000070200080702000807020008070200081C
:1000A000070200080702000807020008070200080C
:1000B00007020008070200080702000807020008FC
:1000C00007020008070200080702000807020008EC
:1000D000070200086D470008070200080702000831
:1000E00007020008070200080702000807020008CC
:1000F00007020008070200080702000800000000CD
:1001000000000000070200080000000007020008CD
:100110000702000800000000E13A0008070200089A
:10012000070200080702000807020008070200088B
:10013000070200080000000000000000070200089D
:10014000070200080702000800000000000000008D
:10015000000000000000000000000000000000009F
:10016000000000000000000000000000070200087E
:10017000070200080000000000000000000000006E
:10018000000000000702000800000000000000005E
:10019000000000000000000000000000000000005F
:1001A000000000000000000007020008070200082D
:1001B000070200080702000807020008000000000C
:1001C000000000000702000800000000000000001E
:1001D0000702000807020008DFF80CD000F0F6FA6A
:1001E00000480047DD5100083006002006488047DF
:1001F00006480047FEE7FEE7FEE7FEE7FEE7FEE70C
:10020000FEE7FEE7FEE7FEE7C53A0008D901000871
:100210002DE9F05F0546002092469B46884606463B
:10022000814640241BE0284641464746224600F0CE
:100230001EFA53465A46C01A914110D31146184629
:10024000224600F005FA2D1A67EB01084F462246B8
:100250000120002100F0FCF917EB00094E41201E9F
:10026000A4F10104DFDC484631462A464346BDE896
:10027000F09FD2B201E000F8012B491EFBD270477B
:100280000022F6E710B513460A4604461946FFF762
:10029000F0FF204610BD421C10F8011B0029FBD1C5
:1002A000801A70472DE9FE4F804681EA0300C00F97
:1002B0000C46009021F0004123F00045B8EB02000D
:1002C000A94105D24046214690461C460B460246AF
:1002D00023F00040104347D0270DC7F30A00C3F3B3
:1002E0000A510290401A019040286BDAC3F31300C0
:1002F00040F4801B0098924620B10023D2EB030A01
:1003000063EB0B0B01985946C0F14002504600F0D8
:100310009FF906460D4650465946019A00F0B7F936
:1003200010EB08006141002487EA115284EAE77368
:100330001A4340D0009A62B3019A012A4FEA075249
:1003400015DC001B61EB02014FF0004202EA07528C
:10035000CDE90042001C41F5801132462B4600F0E9
:10036000B7F903B0BDE8F08F40462146F9E7001B1E
:1003700061EB0201001C41F5801300185B4120185D
:10038000A2F5001747EB030140EAD570B6196D419D
:1003900011E06D084FEA360645EAC0754FEA07528C
:1003A000001B61EB0201001C41F5801149084FEA76
:1003B00030000019514132462B4603B0BDE8F04FE2
:1003C00000F077B90098012240000023D0EB020230
:1003D00063EBE073009821464FEAE074B8EB00004D
:1003E00061EB0401E9E783F000435BE781F0004142
:1003F00058E72DE9FE4F81EA030404F0004421F0A0
:10040000004100944FF0000B23F0004350EA010438
:100410005ED052EA03045BD0C3F30A54C1F30A5519
:100420002C44A4F2F3340194A0FB0254C1F3130151
:1004300041F48011C3F3130343F4801301FB02441E
:1004400000FB034E840A970A44EA815447EA835723
:10045000A4FB076802958D0A05FB07854FEA932CDC
:1004600004FB0C542705029D4FEA065847EA16374D
:10047000B5EB08056EEB070C870E920E47EA811765
:1004800042EA8312A7FB0201B6EB0B0164EB000406
:100490002B0D43EA0C335E1844EB1C50DA465146F0
:1004A000E7FB0201C5F313044FEA0B3343EA14538D
:1004B0004FEA0432019C43EA0603A4F10C040294BF
:1004C000009CCDE900B400F003F903B0BDE8F08F63
:1004D00000200146F9E72DE9F04D81EA030404F01C
:1004E000004B21F0004514464FF0000A23F0004174
:1004F00050EA050220D054EA01021DD0C5F30A5784
:100500000246C5F31303C1F31300C1F30A5640F4C6
:10051000801543F48013A7EB0608101BD64608F29B
:10052000FD3873EB050002D308F1010801E09218D1
:100530005B41B8F1000F03DA00200146BDE8F08D01
:1005400000204FF48011064684460EE0171B73EB23
:10055000050705D3121B63EB050306434CEA010CA8
:1005600049084FEA300092185B4150EA0107EDD18B
:1005700052EA030012D082EA040083EA050108432C
:1005800005D0101BAB4106D20122002306E0002259
:100590004FF0004302E06FF0010253101AEB060027
:1005A0004CEB085110EB0A0041EB0B01BDE8F04D9C
:1005B00000F07FB80EB540F2334102910021CDE941
:1005C00000110A460B4600F083F803B000BD00F0AE
:1005D000004230F000400AD0C10D01F56071C0F357
:1005E000160042EA0151C20840071143704700203B
:1005F0000146704730B5041E71F1000404DB4FF072
:100600000044404264EB0101141E73F1000405DB59
:100610001C464FF00043524263EB04038B4208BF79
:10062000824230BD30B50B46014600202022012415
:1006300009E021FA02F59D4205D303FA02F5491BB0
:1006400004FA02F52844151EA2F10102F1DC30BDC6
:10065000202A04DB203A00FA02F100207047914082
:10066000C2F1200320FA03F3194390407047202A77
:1006700004DB203A21FA02F00021704721FA02F34C
:10068000D040C2F120029140084319467047202A09
:1006900006DBCB17203A41FA02F043EAE07306E0AA
:1006A00041FA02F3D040C2F12002914008431946BA
:1006B000704710B5141E73F1000408DA401C41F1B4
:1006C000000192185B411A4301D120F0010010BDD6
:1006D0002DE9F04D92469B4611B1B1FA81F202E04C
:1006E000B0FA80F220329046FFF7B2FF04460F4680
:1006F00040EA0A0041EA0B0153465A46084313D028
:10070000114653EA010019D0C8F140025046FFF7E4
:10071000AEFF05460E46504659464246FFF798FF43
:10072000084305D0012004E020463946BDE8F08D9D
:100730000020054346EAE0762C4337430A986305D8
:10074000E40AA0EB08000022FD0A44EA47540A30FC
:1007500002D500200146E9E7010510196941DDE9EC
:10076000084500196941BDE8F04DA2E7C1F30A52FE
:10077000C1F3130140F2FF3341F480119A4202DACF
:1007800000200146704740F233439A42A2F23342BE
:1007900002DC5242FFF76BBFFFF75ABF30B5041EB1
:1007A00071F1000404DB4FF00044404264EB0101AE
:1007B000141E73F1000405DB1C464FF00043524247
:1007C00063EB0403994208BF904230BD064C074DCD
:1007D00006E0E06840F0010394E807009847103411
:1007E000AC42F6D3FFF7FCFCA0640008C06400082C
:1007F00010B5044800F0D4FABDE81040024800F0FB
:10080000CFBA000080000020EC00002070B5044644
:100810000068816811F0010F28D18168144A1142E3
:1008200015D18168D5432940491C816000F0FCFE48
:10083000064616E0816811F0010F03D18168294056
:10084000491C816000F0F0FE801B022809D9E06D90
:1008500040F01000E065206E40F0010020660120AD
:1008600070BD20680168C943C907E3D1002070BD8D
:100870003F000080FEE77047002240F6B83306E0F4
:100880000021491C89B29942FBD3521C92B2824288
:10089000F6D370477047704770477047704770478E
:1008A0002DE9F047044690F858009CB00D464FF0F3
:1008B0000008012814D0012084F8580020684FF067
:1008C000A0474FF00009B8420ED1284E009630469E
:1008D00002F03CFC8246206802F038FC60B10EE079
:1008E00002201CB0BDE8F087E16D41F02001E16518
:1008F00084F858900120F4E7BAF1000F0AD0E06DB7
:1009000040F02000E0654FF0010800BF84F85890E7
:100910004046E6E716482A6840F61F71002A8268BA
:1009200022F4604215D094F8383042EA43326B68C2
:100930001A438260BA68B36802F0010203F001034F
:100940001A43E3D1AB682A681A4383688B431A437E
:100950000AE08260BA68B36802F0010203F00103A2
:100960001A43D3D182688A438260CFE700010050E6
:10097000000300502DE9F84F00270446009790F837
:100980005800DFF8DC930D46B846012811D0012647
:1009900084F85860206802F0D5FB60B1E06D40F04B
:1009A0002000E0655FF0010784F858803846BDE814
:1009B000F88F0220FBE7D5E900210C23206803EA29
:1009C00091131844036B01F01F014FF01F0C0CFA38
:1009D00001FCC2F3846223EA0C038A4013430363DD
:1009E000206802F0AFFB8246206802F0A7FB5AEABB
:1009F00000003CD1AA6829682068B2F1004F37D0C6
:100A000002F0B0FB2068416921F00041416120689B
:100A10006969C268C2F3C102520091402A69042A7E
:100A200031D000EB82002B68026EDFF838C303F090
:100A3000F84302EA0C020B431A4342F000410166FC
:100A400022682869A96902EB8000026E22F0807298
:100A50000A430266297F20682A69012910D00021F3
:100A600000EB8200026E22F000720A4302667DE013
:100A7000002202F077FB2068416941F00041C5E7A0
:100A80004FF00071ECE7002102F052FB40032068B8
:100A90004FF0000172D002F04BFB90FAA0F0B0FAD8
:100AA00080F1286842036ED090FAA0F0B0FA80F08E
:100AB000814204D100221146206802F062FB01212C
:100AC000206802F035FB400320684FF001015DD043
:100AD00002F02EFB90FAA0F0B0FA80F128684203F1
:100AE00059D090FAA0F0B0FA80F0814204D10022EF
:100AF0000121206802F045FB0221206802F018FB6A
:100B0000400320684FF0020148D002F011FB90FA38
:100B1000A0F0B0FA80F12868420344D090FAA0F027
:100B2000B0FA80F0814204D100220221206802F054
:100B300028FB0321206802F0FBFA400320684FF0F5
:100B4000030133D002F0F4FA90FAA0F0B0FA80F189
:100B5000286842032FD090FAA0F0B0FA80F08142CA
:100B600004D100220321206802F00BFB2068816879
:100B700011F0010F22D0ACE000E004E002F0D8FA5E
:100B8000C0F384618DE7C0F3846091E702F0D0FA8E
:100B9000C0F38461A2E7C0F38460A6E702F0C8FA5C
:100BA000C0F38461B7E7C0F38460BBE702F0C0FA2A
:100BB000C0F38461CCE7C0F38460D0E72A7B296866
:100BC00050F8B03FC1F3120C23EA0C0302F0180CEA
:100BD000654A22FA0CF20A4013430360E96849456A
:100BE00077D1286841031CD090FAA0F1B1FA81F1C5
:100BF000491C01F01F0109294FEA403132D8002970
:100C000012D000BF90FAA0F1B1FA81F101F1010117
:100C100001F01F0106FA01F609D100BFC0F384619B
:100C200009E0C0F38461E3E7C0F38461EEE790FA82
:100C3000A0F1B1FA81F101F1010101F01F0146EAD1
:100C4000816102D1C0F3846003E090FAA0F0B0FAB1
:100C500080F000F1010000F01F0000EB400041EACD
:100C6000005132E000290ED090FAA0F1B1FA81F1E2
:100C700001F1010101F01F0106FA01F606D100BFE2
:100C8000C0F3846106E0C0F38461F1E790FAA0F15B
:100C9000B1FA81F101F1010101F01F0146EA816120
:100CA00002D1C0F3846003E090FAA0F0B0FA80F0C3
:100CB00000F1010000F01F002C4A00EB400002EBA5
:100CC000005041EA000141F00071AA68206802F07A
:100CD00049FA27482A6802423FF466AE25488168EF
:100CE000254B01F0E0719A4202D0244B9A421BD16D
:100CF0000B0219D42268B2F1A04F7FF455AE82687E
:100D000041F4000122F0E0720A4382601C481D4950
:100D10000068B0FBF1F000EB4000800000E0401EF6
:100D200000900028FBD13FE6174D184BAA4207D18F
:100D3000CD0105D422689A42F5D041F0807109E0D6
:100D4000134DAA42EFD14A02EDD422689A42EAD06A
:100D500041F48001826822F0E0720A43826023E657
:100D600000007F4000F0FF03FFFF0700000020FEAF
:100D70000000088000030050000021C31000C09054
:100D800030000020400D0300000052C70001005059
:100D9000000084CB704770470068006C704700000B
:100DA0002DE9F05F0446006806684568DFF854B234
:100DB000DBF8080000F01F07B0070ED5A8070CD518
:100DC000E06DC00603D4E06D40F40060E0652046AD
:100DD000FFF761FD216802200860DFF82CA2700790
:100DE0004FF0A04801D5680703D4300737D528074E
:100DF00035D5E06DC00603D4E06D40F40070E065C9
:100E0000206802F0A7F920B32068504501D142467E
:100E100000E00246824208D03FB1052F05D0092FDD
:100E200003D0504503D1414602E0C16801E00146CC
:100E3000C96889040DD4016809070AD502F082F94E
:100E400058B3E06D40F01000E065206E40F0010006
:100E500020662046FFF79EFF21680C200860B00640
:100E600001D5A80603D4700658D5680656D5E06D9E
:100E7000C00603D4E06D40F40050E0652068C16C0A
:100E800011F4C07F1AD00021894602F063F90246AE
:100E90002068504514D1434613E02068416821F092
:100EA0000C014160E06D20F48070E065E06DC004ED
:100EB000CFD4E06D40F00100E065CAE70121E3E72F
:100EC0000346834208D03FB1062F05D0072F03D039
:100ED000504503D1414602E0C16801E00146C968BE
:100EE000B9F1000F04D18B0112D48AB18A040FD456
:100EF000026852060CD589020AD402F01FF9E8B341
:100F0000E06D40F01000E065206E40F001002066CA
:100F10002046FFF7C1FC21686020086030060BD531
:100F2000280609D5E06D40F48030E065204600F0E9
:100F300069F9216880200860F0050CD5E8050AD51C
:100F4000E06D40F40030E0652046FFF7A7FC216823
:100F50004FF480700860B0050CD5A8050AD5E06D87
:100F600040F48020E0652046FFF799FC21684FF4AB
:100F700000700860F0062ED5E80600E008E02AD5EB
:100F8000E06BD0B1AFB1DBF8080000F4604013E0D3
:100F90002068416821F060014160E06D20F48050DC
:100FA000E065E06DC005B3D4E06D40F00100E065A0
:100FB000AEE72068C068C00750B1E06D40F48060C3
:100FC000E065206E40F0020020662046FFF7E3FE59
:100FD000216810200860700512D5680510D5E06DF5
:100FE00040F48040E065206E40F0080020662168F3
:100FF0004FF4806008602046BDE8F05FFFF74DBC0D
:10100000BDE8F09F0003005000010050F8B54FF01C
:10101000000504002E46009502D0E06D10B107E0F7
:101020000120F8BD204600F0EFF8266684F85860ED
:1010300020688168C1F3407119B18168694A114023
:10104000816020688168C1F3007179B98168664A5E
:10105000114041F080518160644865490068B0FBEF
:10106000F1F000E0401E00900028FBD1206881686C
:10107000C1F3007141B9E16D41F01001E165216EEC
:1010800041F001012166012502F05CF8E16DC9061D
:1010900000D430B1E06D40F01000E0650125284635
:1010A000F8BDE06D20F4807040F00200E06520683B
:1010B000806810F0010F11D14FF0A04080684D49B9
:1010C00000F00100896801F00101084306D14A4897
:1010D0006168826822F47C120A438260E168E06BF6
:1010E000627F0843A16841EA4231084394F8241022
:1010F00040EA0140012904D1218D404A02EB4141DF
:101100000843E16A29B101F47871226B014342EA94
:1011100001002168CA683A4B1A400243CA6020683D
:101120000169626B21F0406111430161206802F0A6
:1011300009F80646206802F001F830432ED1207FDE
:1011400094F83810800340EA41022068C16844F2F4
:10115000020399431143C160206900282068016996
:101160000AD041F480310161206850F8C01F226923
:101170006FF30D01114307E021F480310161206814
:1011800050F8C01F6FF30D01016094F84000012872
:101190000CD02068016921F001010161606901281A
:1011A0002068016B21F00F0111D013E0D4E9110187
:1011B0000843D4E913121143084321680A6940F235
:1011C000FC739A43104340F001000861E6E7226A8D
:1011D000521E11430163E06D20F0020040F0010057
:1011E000E0655CE7C0FFFF5FC0FFFF7F30000020CD
:1011F000400D030000010050000300500000FEFFFE
:101200000740F0FF70470000F0B587B00446142196
:101210006846FFF735F8254B266800241A68032531
:1012200023482449521CB6F1A04F06D0224FBE429B
:1012300039D11A60012A16D01DE01A60012A07D19F
:10124000CA6C42F40052CA64CA6C02F4005205929D
:10125000CA6C42F00202CA64C96C01F00201059135
:101260004FF4805111E0CA6C42F40052CA64CA6C57
:1012700002F400520592CA6C42F00202CA64C96CC0
:1012800001F0020105914FF40041CDE900150294EF
:10129000694600F0DBF800220321122000F034FA46
:1012A000122000F023FA07B0F0BD00002C0000204F
:1012B0000004004800100240000100502DE9F041F8
:1012C00004463848806800F01F05206801F03AFFA6
:1012D00018B102210846BDE8F08194F858000128B1
:1012E0000CD0012084F858002046FFF78FFA010047
:1012F0004FF0000304D084F85830EBE70220EAE70F
:10130000E06D40F60162904340F48070E065264A4B
:1013100020684FF0A046904201D1374600E00746D2
:10132000874200D01DB9E76D27F48017E765E76DA8
:10133000FF0404D5276E27F00607276600E0236622
:101340001C27076084F858302068904201D133464A
:1013500000E00346834215D0A5B1052D12D0092D1A
:1013600010D0E36D43F48013E365904200D1304622
:10137000C0688001AED5E06D20F4005040F480508C
:10138000E065A7E7C268920105D5E26D22F400523C
:1013900042F48052E2658268044B1A40121D82605A
:1013A00098E700000003005000010050C0FFFF7FDD
:1013B00070B590F82520002401212346022A07D089
:1013C0000422C26380F8251080F82430012429E02B
:1013D0000268156825F00E0515600268156825F08D
:1013E00001051560826C156825F48075156090F80C
:1013F0004420056C02F01F0201FA02F26A60D0E993
:1014000013255560426D32B1156825F4807515605D
:10141000D0E91625556080F8251080F82430816BBE
:1014200001B18847204670BD70B5044600F0FCF855
:101430000546601C02D004484068044400F0F4F8FB
:10144000401BA042FAD370BD340000202DE9FC4FB0
:10145000DFF8A0A1002301250AF1040B03244FF0BB
:101460000F0C0BF1040EBDE005FA03F632406FD00D
:101470004F68012F05D0022F03D0112F01D0122F5A
:1014800017D1D0F808905F0004FA07F829EA080994
:101490000097D1F80C8008FA07F848EA0908C0F864
:1014A00008804768B7430E79C6F300169E403E4356
:1014B0004660C6684FEA430804FA08F7BE4301973E
:1014C0008F6807FA08F73743C7604E68022E01D0CD
:1014D000122E13D1DE0800EB86060096366A5F07EF
:1014E000FF0E0CFA07F926EA0906D1F8109009FA5E
:1014F00007F949EA0609009EC6F820900668019F90
:10150000BE430F7907F0030707FA08F73743076070
:101510004E68F60065D5384E376E47F001073766DE
:10152000366E23F0030706F001060096334E3E4464
:10153000B146B6689F074FEA17780CFA08F7BE4322
:10154000B0F1904F05D02E4FB84204D1012717E0DB
:1015500047E0002714E02B4FB84201D102270FE0EB
:10156000294FB84201D103270AE0284FB84201D1E0
:10157000042705E0264FB84201D1052700E00627E1
:1015800007FA08F73743C9F80870DAF800605746D9
:10159000D1F8048096435FEAC83800D516433E6010
:1015A000DBF800605F46D1F8048096435FEA883834
:1015B00000D516433E60DEF800607746D1F804801F
:1015C00096435FEAC82800D516433E60094F0C37A2
:1015D0003E68D1F8048096435FEA882800D5164318
:1015E0003E605B1C0A6832FA03F67FF43DAFBDE84B
:1015F000FC8F000000040140001002400000014088
:101600000004004800080048000C00480010004892
:10161000001400480069084000D0012070470AB15A
:10162000816170478162704701488068704700009F
:10163000340000200248816842681144816070478C
:101640003400002010B50024032000F07DF80020B5
:1016500000F008F808B1012401E000F025F8204668
:1016600010BD000070B50E4E05460024706898B19C
:101670004FF47A71B1FBF0F00A490968B1FBF0F060
:1016800000F066FD40B9102D06D200222946501EFA
:1016900000F03AF8356000E00124204670BD0000FB
:1016A00034000020300000200E4808B5016E41F0E3
:1016B00001010166016E01F001010091816D41F0AF
:1016C00080518165806D002200F0805000900F21D4
:1016D000501F00F019F80448816841F4804181608E
:1016E00008BD00000010024000700040002809DB27
:1016F00000F01F02012191404009800000F1E0202C
:10170000C0F8001170470000F0B40E4B1B680C4687
:10171000C3F30223C3F10705042D00D90425191DC5
:10172000072901D2002300E0DB1E012606FA05F19D
:10173000491E214099409E40761E16403143F0BC20
:1017400003F066B80CED00E0064900F007020868F7
:101750004FF6FF03184040EA0220034A1043086096
:10176000704700000CED00E00000FA052B492C4BFF
:101770000A6832214A432B4940B1B0F5007F08681E
:1017800029D020F4C06040F480602CE00868C0F3E9
:101790004120022804D051F8800F20F4807022E00C
:1017A000D1F8800020F48070C1F88000086820F42F
:1017B000C06040F400700860B2FBF3F0401C00E031
:1017C000401E4A69520501D50028F9D148694005F3
:1017D0000AD503207047C0F34120022806D051F8F3
:1017E000800F40F48070086000207047D1F88000BE
:1017F00040F48070C1F88000086820F4C06040F4B4
:1018000000700860B2FBF3F0401C00E0401E4A6923
:101810005205DBD50028F9D1D8E7000030000020C0
:1018200040420F00007000402DE9F8430446006874
:1018300000269D4D00035ED5A86D0027C00008D48A
:10184000A86D40F08050A865A86D012700F0805079
:101850000090DFF85892D9F8001041F48071C9F86F
:101860000010FFF7E1FE804606E000BFFFF7DCFE58
:10187000A0EB080002282BD8D9F80000C005F5D548
:10188000D5F8900010F4407014D0216C814211D032
:10189000D5F89000D5F8901020F4407041F48031D4
:1018A000C5F89010D5F8901021F48031C5F890104B
:1018B000C5F89000C00711D0FFF7B6FE804641F290
:1018C000883907E0FFF7B0FEA0EB0801494501D9D0
:1018D00003260BE0D5F890008007F3D5D5F89000EB
:1018E000216C20F440700843C5F890001FB1A86D2A
:1018F00020F08050A8652078C00707D0D5F8880070
:10190000616820F003000843C5F88800207880074C
:1019100007D5D5F88800A16820F00C000843C5F869
:1019200088002078400707D5D5F88800E16820F0C6
:1019300030000843C5F888002078000707D5D5F89F
:101940008800216920F0C0000843C5F8880020788D
:10195000800607D5D5F88800616920F44060084307
:10196000C5F888002078400607D5D5F88800A16919
:1019700020F440500843C5F888002078000607D5B9
:10198000D5F88800E16920F440400843C5F8880094
:101990002088C00507D5D5F88800216A20F440309A
:1019A0000843C5F888002088800507D5D5F8880049
:1019B000616A20F440200843C5F88800208840056B
:1019C0000FD5D5F88800A16A20F440100843C5F867
:1019D0008800A06AB0F5801F03D1E86840F4801049
:1019E000E860208800050FD5D5F88800E16A20F46A
:1019F00040000843C5F88800E06AB0F5800F03D1C5
:101A0000E86840F48010E8602088C0040FD5D5F85D
:101A10008800216B20F040700843C5F88800206BD7
:101A2000B0F1807F03D1E86840F48010E86020883E
:101A30004FF0006180040ED5D5F88800626B20F06D
:101A400040601043C5F88800606B884203D1E868A5
:101A500040F48010E860208840040ED5D5F8880056
:101A6000A26B20F040601043C5F88800A06B88424C
:101A700003D1E86840F48010E860208800040FD5A6
:101A8000D5F88800E16B20F040500843C5F8880085
:101A9000E06BB0F1805F03D1E86840F48030E8602B
:101AA0003046BDE8F883000000100240007000409E
:101AB0002DE9F0470E4605004FF0000725D0DFF86E
:101AC000AC81D8F8000000F00F00B0420CD2D8F87A
:101AD000001021F00F013143C8F80010D8F80000C1
:101AE00000F00F00B04210D12968614CC80741F2E4
:101AF000883A5AD06868DFF87C91032808D0022819
:101B000020682DD0400500282CDB0120BDE8F0879F
:101B100020688001F9D5E06800F00302E068C0F3B6
:101B20000310401C032A19D0534A00BFB2FBF0F047
:101B3000E268C2F306225043E268C2F34162521CDB
:101B40005200B0FBF2F0484517D9A06810F0F00F32
:101B50000CD0880711D5A86840B10EE0474AE5E7E8
:101B60008003D0E700F0B6F8484506D9A06820F019
:101B7000F00040F08000A0608027A068696820F035
:101B800003000843A060FFF74FFD814606E000BF59
:101B9000FFF74AFDA0EB090151453AD8A0686968F2
:101BA00000F00C00B0EB810FF2D12868810714D54A
:101BB000400703D5A06840F4E060A06028780007E3
:101BC00005D5A06820F4605040F4E060A060A068F3
:101BD000A96820F0F000084304E0802F03D1A0683A
:101BE00020F0F000A060D8F80010404601F00F018E
:101BF000B14216D9016821F00F0131430160FFF7AE
:101C000013FD074607E000BFFFF70EFDC11B51455E
:101C100001D903207AE7D8F8000000F00F00B042A5
:101C2000F2D12878400705D5A068E96820F4E06083
:101C30000843A0602878000706D5A068296920F429
:101C4000605040EAC100A06000F044F8A1680C4A6E
:101C5000C1F30311515C01F01F01C840094908603C
:101C600009480068BDE8F047FFF7FCBC00200240CF
:101C70000010024000B4C4040024F40000366E01D9
:101C80008664000830000020340000200548064922
:101C900000688968054AC1F30221515C01F01F0107
:101CA000C8407047300000200010024096640008D1
:101CB0000548064900688968054AC1F3C221515C9C
:101CC00001F01F01C84070473000002000100240A2
:101CD00096640008184910B58868C0F38102174857
:101CE000012A0BD08A68164BC2F38102022A06D061
:101CF0008A68C2F38102032A03D0002010BD18466F
:101D000010BDCA6802F00304CA68C2F30312521C71
:101D1000032C02D0B0FBF2F001E0B3FBF2F0CA6892
:101D2000C968C2F306225043C1F34161491C49000E
:101D3000B0FBF1F010BD0000001002400024F400E0
:101D400000366E012DE9F84304007AD02078FA4D70
:101D5000C00747D0A868E96800F00C0001F0030153
:101D60000C2802D0082817D001E0032914D060689D
:101D7000B0F5803F17D0B0F5A02F286817D020F419
:101D800080302860286820F4802028606068E0B1F6
:101D9000FFF74AFC064614E02868800322D56068F5
:101DA0000028D2D01EE0286840F48030EDE740F4EF
:101DB00080202860F7E700BFFFF736FC801B64280F
:101DC00070D828688003F7D50CE0FFF72DFC064695
:101DD00005E000BFFFF728FC801B6428F0D82868C6
:101DE0008003F7D4207880074CD5A868E96800F014
:101DF0000C0001F003010C2802D004280DD001E0F2
:101E000002290AD0E068002828682BD040F48070AE
:101E10002860FFF709FC064619E02868400502D54E
:101E2000E068002891D06868217C20F0FE4040EAFC
:101E300001606860C1480068FFF714FC002800D109
:101E400020E076E1FFF7F0FB801B0228B8D8286875
:101E50004005F7D56868217C20F0FE4040EA01602B
:101E600068600FE020F480702860FFF7DDFB064615
:101E700005E000BFFFF7D8FB801B0228A0D8286828
:101E80004005F7D42078000729D560690028D5F8E7
:101E9000940013D040F00100C5F89400FFF7C4FB94
:101EA000064606E090E000BFFFF7BEFB801B02285D
:101EB00086D8D5F894008007F6D510E020F0010010
:101EC000C5F89400FFF7B0FB064604E0FFF7ACFB53
:101ED000801B022878D8D5F894008007F6D42078A3
:101EE000400761D5A86D0026C00008D4A86D40F059
:101EF0008050A865A86D012600F0805000909048A1
:101F00000168C90511D40168804641F480710160FF
:101F1000FFF78AFB074604E0FFF786FBC01B022899
:101F200052D8D8F80000C005F6D5A068012815D011
:101F30000528D5F8900016D020F00100C5F89000D3
:101F4000D5F8900020F00400C5F89000A06841F298
:101F50008838B8B1FFF768FB07460EE0D5F8900067
:101F600040F00100F0E740F00400C5F89000F5E70C
:101F7000FFF75AFBC11B414526D8D5F890008007D2
:101F8000F6D50CE0FFF750FB074604E0FFF74CFBEB
:101F9000C11B414518D8D5F890008007F6D41EB172
:101FA000A86D20F08050A8652078800629D5A0690A
:101FB0000028D5F8980013D040F00100C5F898002B
:101FC000FFF732FB064606E077E000BFFFF72CFB89
:101FD000801B022877D8D5F898008007F6D510E046
:101FE00020F00100C5F89800FFF71EFB064604E04C
:101FF000FFF71AFB801B022865D8D5F898008007E8
:10200000F6D4E069F0B3A968C1F38101032961D076
:102010000228286820F0807028600BD0E86820F043
:102020000300E860E86847490840E860FFF7FCFA09
:1020300004464BE0FFF7F8FA064604E0FFF7F4FA2F
:10204000801B02283FD828688001F7D4F4E90801F2
:102050006FF00F0202EB01110843218A5204490874
:1020600002EB4151A26841EA02210843217D4FF071
:102070007E42490802EB41610843217B40EAC1608E
:10208000E96800E062E0304A11400843E8602868EF
:1020900040F080702860E86840F08070E860FFF7EA
:1020A000C3FA044605E000BFFFF7BEFA001B022892
:1020B00009D828688001F7D548E004E0FFF7B4FAB2
:1020C000001B022802D90320BDE8F883286880019C
:1020D000F4D43BE00128F7D0E868226A00F003015D
:1020E000914226D1616A00F0F00209011039914253
:1020F0001FD1A26A00F4FE41B1EB022F19D194F86E
:102100002C2000F07841B1EBC26F12D1218E00F487
:10211000C00249084905A1F50011914209D194F87E
:10212000341000F0C06049084906A1F100718142F5
:102130000CD00120C8E7000000100240340000204D
:1021400000700040FFFFEEFE0C809F010020BBE707
:1021500010B5401EB0F1807F01D3012010BD4FF0BB
:10216000E02460610F21601702F052FB0020A061A3
:1021700007202061002010BD7047704770477047EE
:1021800070477047F0B590F83C20012A3AD00125FD
:1021900080F83C50022280F83D2003685A689C6811
:1021A000194E1A4FB34201D0BB4204D122F4700C35
:1021B0004A6842EA0C02DFF858C002EA0C02D1F881
:1021C00000C04CEA020CC3F804C00268B2420DD051
:1021D000B2F1804F0AD00F4B9A4207D00E4B9A4271
:1021E00004D0BA4202D00D4B9A4204D1896824F03F
:1021F00080031943916080F83D50002180F83C1025
:102200000846F0BD0220F0BD002C01400034014022
:102210008FFFFFFD00040040000800400040014027
:10222000704710B5040003D094F83D0010B107E0EA
:10223000012010BD002084F83C00204600F022F868
:10224000022084F83D00211D206801F04FFC012090
:1022500084F8480084F83E0084F83F0084F8400089
:1022600084F8410084F8420084F8430084F8440074
:1022700084F8450084F8460084F8470084F83D005F
:10228000002010BD08B500680B49884212D10B48E8
:10229000816D41F010018165806D002200F0100019
:1022A000009002213620FFF72FFABDE808403620C3
:1022B000FFF71CBA08BD00000010004000100240EB
:1022C00090F83D10012901D001207047022180F8CB
:1022D0003D100168CA6842F00102CA600068816866
:1022E000064A1140062906D0B1F5803F03D00168A7
:1022F00041F001010160002070470000070001006B
:10230000704770B50446006801694FF00005C94385
:10231000890715D4C168C943890711D4E91E016131
:1023200001202077206880698007204602D0FFF7CF
:10233000E7FF04E000F0E3F8204600F0E1F825773D
:1023400020680169C943490717D4C168C9434907CF
:1023500013D46FF0040101610220207720688069A6
:1023600010F4407F204602D0FFF7CAFF04E000F0DF
:10237000C6F8204600F0C4F8257720680169C943F3
:10238000090716D4C168C943090712D46FF00801C0
:102390000161042020772068C0698007204602D0B0
:1023A000FFF7AEFF04E000F0AAF8204600F0A8F81E
:1023B000257720680169C943C90617D4C168C94394
:1023C000C90613D46FF0100101610820207720683E
:1023D000C06910F4407F204602D0FFF791FF04E06F
:1023E00000F08DF8204600F08BF825772068016911
:1023F000C943C90708D1C168C943C90704D1891EA7
:102400000161204600F07EF820680169C943090691
:1024100009D4C168C943090605D46FF08001016180
:102420002046FFF7AAFE20680169C943C90509D4FF
:10243000C168C943090605D46FF480710161204663
:10244000FFF79AFE20680169C943490609D4C168AB
:10245000C943490605D46FF040010161204600F0F0
:102460005DF820680169C943890609D4C168C94378
:10247000890605D46FF0200101612046FFF77EFE3A
:1024800020680169C943C90209D4C168C943C902A6
:1024900005D46FF4801101612046FFF771FE2068BA
:1024A0000169C943890209D4C168C943890205D4B5
:1024B0006FF4001101612046FFF761FE2068016999
:1024C000C943490209D4C168C943490205D46FF41C
:1024D000800101612046FFF754FE20680169C9436D
:1024E00009020BD4C168C943090207D46FF4000183
:1024F00001612046BDE87040FFF792BE70BD704795
:102500007047000003480178491C01700248FFF73A
:10251000D7BE00000800002058010020704790F846
:102520007C10012918D0012180F87C102421C0F8EA
:10253000801050F8601B0A680B6823F001030B60E1
:1025400022F000510022426050F8603C19602021C6
:10255000016202771046704702207047704770B5DD
:10256000044690F87C0001281DD0012084F87C00EE
:102570002420C4F8800020680568026822F0010267
:1025800002602068826822F060620A43826020460E
:1025900001F004FB206805602020C4F880000020C2
:1025A00084F87C0070BD022070BD70B5044690F8C0
:1025B0007C0001281DD0012084F87C002420C4F870
:1025C000800020680568026822F00102026020682D
:1025D000826822F060420A438260204601F0DEFAFF
:1025E000206805602020C4F88000002084F87C006A
:1025F00070BD022070BD7047704770472DE9F041F3
:1026000003680446D8691A68996810F00F0F4FF0F4
:10261000000569D05E4E02F490770E4037437DD0BE
:10262000C70709D0D70507D501271F62D4F888301E
:1026300043F00103C4F8883083070AD5CB0708D0DC
:10264000276802233B62D4F8883043F00403C4F8BF
:10265000883043070AD5CB0708D0276804233B629C
:10266000D4F8883043F00203C4F8883003070CD54F
:1026700002F02003334308D0266808233362D4F8DD
:10268000883043F00803C4F88830D4F88830002B31
:102690003CD0800609D502F0200001F080510843AB
:1026A00003D0E16E09B120468847D4F8880021683C
:1026B0008968490601D400072AD5204601F03EFB6F
:1026C0002068816849061ED5816821F0400181603B
:1026D000A06FC0B12F498163A06FFEF769FE00288B
:1026E00014D0A06F816B0AE0860617D502F0200691
:1026F00001F080573E4311D0E16E24E02046BDE852
:10270000F04108470AE02046FFF777FFBDE8F08177
:102710002046FFF772FFC4F88850F7E7C60209D5D4
:102720004E0207D54FF4801018622046BDE8F041F4
:10273000FFF762BF060609D502F0800601F400012A
:102740000E4303D0216F0029D8D1DFE741060DD514
:1027500051060BD51968204621F04001196020214F
:10276000C4F88010256700F079F9CFE7010206D59B
:10277000510004D52046BDE8F041FFF73CBFC00141
:10278000C4D5002AC2DA2046BDE8F041FFF7E6BE14
:1027900001000010273D000810B5040003D0D4F854
:1027A000800010B107E0012010BD002084F87C00FB
:1027B000204600F027F82420C4F880002068016833
:1027C00021F001010160204601F0CAFB0128EBD095
:1027D000A06A10B1204601F013FA2068416821F484
:1027E000904141602068816821F02A018160206861
:1027F000016841F0010101602046BDE8104001F090
:1028000063BA000010B586B0044614216846FDF78F
:1028100037FD17492068884227D11648016E41F4D8
:1028200080410166016E01F480410591C16C41F067
:102830000101C164C06C694600F0010005904FF4CD
:10284000C0600090022001900020029003900720B9
:1028500004904FF09040FEF7F9FD00220121252061
:10286000FEF752FF2520FEF741FF06B010BD000025
:10287000003801400010024070B5D0F88430202BA1
:102880006DD1B9B1B2B190F87C30012B67D0012382
:1028900080F87C308165A0F85C20A0F85E200021E3
:1028A000C16683684FF48056FF24B34207D10369A1
:1028B00013B11CE0012070BD40F2FF131DE07F2525
:1028C0009BB1B3F1805F15D0A0F86010C0F88810FC
:1028D0002223C0F8843003689C6844F001049C60A3
:1028E000436EB3F1005F0ED027E0036943B9A0F84F
:1028F0006040EBE703691BB13F23A0F86030E5E7D8
:10290000A0F86050E2E7B0F86830934215D88268CA
:10291000B24201D1026972B1124AC26680F87C10DB
:1029200001680A6842F480720A600068816841F0B8
:10293000805181600FE00C4AEFE78268B24201D11A
:10294000026952B1094AC26680F87C1000680168C9
:1029500041F490710160002070BD054AF3E7022048
:1029600070BD0000C13E0008C13D0008613E000886
:10297000613D000810B5FF2000F0B0FB4FF49670E9
:10298000FEF752FD002000F0A9FBBDE81040012237
:1029900001490248FFF770BF0D000020A40100208C
:1029A0002DE9F8430446D0F880001F4616460D4630
:1029B000202851D1DDB1D6B194F87C0001284BD04C
:1029C000012084F87C004FF00008C4F888802120A2
:1029D000C4F880001834FEF727FEA6878146E687F4
:1029E00054F8100C183CB0F5805F03D004E00120CF
:1029F000BDE8F883206910B12E46002510E00026BE
:102A00000EE08021204601F07EFEB8B9C6B116F86E
:102A1000010B21688862B4F85600401EA4F85600E5
:102A2000B4F856004B464FF0000200970028E8D15A
:102A30004FF04001204601F066FE30B10320D7E799
:102A400035F8020BC0F30800E3E72020C4F880004B
:102A500084F87C800020CBE70220C9E77047FEE7BE
:102A600000B585B014216846FDF70AFCC02000902F
:102A70000120019002900220039069460248FEF76F
:102A8000E5FC05B000BD00000004004870B5082456
:102A9000002500F0A3FF13E06806050E002000F0FB
:102AA00085FF142002F032FB142002F02FFB0120DE
:102AB00000F07CFF142002F029FB00F083FF0543A7
:102AC000641EE4B2E8D2002000F070FF142002F08F
:102AD0001DFB00F0A5FF284670BD10B5002000F0DA
:102AE00093FF142002F012FB142002F00FFB0120D0
:102AF00000F05CFF142002F009FB002000F056FFFC
:102B0000BDE81040142002F001BB70B50446082552
:102B100016E000F04BFF142002F0F8FA04F08000F9
:102B200000F072FF142002F0F1FA6006040E142087
:102B300002F0ECFA012000F039FF142002F0E6FA6E
:102B40006D1EEDB24FF00000E3D200F02FFFBDE8A4
:102B50007040142002F0DABA10B5012000F054FFE2
:102B6000142002F0D3FA142002F0D0FA012000F071
:102B70001DFF142002F0CAFA002000F017FFBDE884
:102B80001040142002F0C2BA10B5012000F03CFF42
:102B9000142002F0BBFA012000F008FF142002F01C
:102BA000B5FA002000F030FF142002F0AFFA002048
:102BB00000F0FCFEBDE81040142002F0A7BA10B5EA
:102BC000002000F0F3FE142002F0A0FA002000F034
:102BD0001BFF142002F09AFA012000F0E7FE1420F7
:102BE00002F094FA012000F00FFFBDE8104014201D
:102BF00002F08CBA10B5052400F0F0FE142002F0AB
:102C000085FA012000F0D2FE142002F07FFA05E0E0
:102C1000641EA4B2142002F079FA6CB100F0D2FE66
:102C20000028F5D100F0FCFE002000F0BFFE1420CB
:102C300002F06CFA002010BD00F0F2FEFFF7BFFFBB
:102C4000012010BD204810B50168204CA268891AE7
:102C5000642937D30068A06000F044F860702179DF
:102C600020EA010241408143A270E1702071032AF1
:102C700003D0042A04D1882000E0002000F02EFABE
:102C800002F056FA00EE100ADFED110AB8EE400A23
:102C900020EE200A10EE100AFDF799FC9FED0D1BA7
:102CA00053EC112BFDF7A5FB9FED0C1B53EC112BE7
:102CB000FDF7A0FC01D2772000E00020BDE8104025
:102CC00000F00CBA10BD00003C00002008000020FD
:102CD000000080396666666666660A40000000008D
:102CE0000000084070B50E4D002401212846FEF773
:102CF00091FC00B9012402212846FEF78BFC00B9A3
:102D0000022404212846FEF785FC00B90324012192
:102D10004FF09040FEF77EFC00B90424204670BDC1
:102D20000004004800B585B014216846FDF7A8FAF4
:102D30004FF6FF70009000200321CDE902010190C1
:102D400069460248FEF782FB05B000BD0008004856
:102D500000B585B014216846FDF792FA4FF6FF7072
:102D6000009001200190032003900020029069460A
:102D70000248FEF76BFB05B000BD000000080048EC
:102D800070B5002406462146204600F003F900F005
:102D900041F94FF49635304600F010F9641CAC420E
:102DA000F9D370BD30B587B014216846FDF768FAD5
:102DB0001E48C16C41F00401C164C16C01F0040102
:102DC0000591C16C41F00101C164C16C01F00101C8
:102DD0000591C16C41F00201C164C06C012500F095
:102DE000020005904FF44870CDE9000500240394DB
:102DF000694602940E48FEF729FB280203940090CE
:102E0000CDE901544FF0904469462046FEF71EFB81
:102E1000FFF79EFFA06940F48070A061044818305D
:102E2000016841F40871016007B030BD0010024034
:102E300000040048203AD2B2034B02EB420203EBFB
:102E4000021200F019B80000B6520008F0B50E46A4
:102E50000746002540F23F1407E021463846FFF7B9
:102E6000E9FF103C6D1CA4B2761C3278002A01D018
:102E7000142DF2D3F0BD00002DE9F04791468A46AB
:102E80000026044600F086F8DFF84080012700BFE6
:102E900000F0C0F85FF0000539F8160007FA05F1F8
:102EA0000842404601D1408800E0008800F086F8E2
:102EB0006D1C102DF0D3641CE4B25146204600F086
:102EC00069F8761C182EE3D3BDE8F08700000020D7
:102ED00010B5FFF767FF002000F014F8084CA08041
:102EE000A088A0F50241303906D000F05DFC00203A
:102EF00000F008F8A08010BD00F0CDFBF7E700005F
:102F00000000002070B51D490A6842F400720A6092
:102F10000A6842F480720A60184C103C226842F041
:102F200020022260164A1060086840F02000086005
:102F300000BF00BF00BF206840F020002060206874
:102F400040F480702060FFF7EDFE4FF09041886AFA
:102F500040F48070886200BF00BF00BF0848001FB7
:102F6000006885B2886940F480708861FFF7F0FEE0
:102F7000206840F400702060284670BD2804004896
:102F80001408004801B5BDF800000149488008BD9B
:102F90000000002010B50C460146202000F068F823
:102FA0002146BDE81040212000F062B801B5BDF80F
:102FB00000000149088008BD00000020134A116884
:102FC00041F400711160114910390B6843F48073AA
:102FD0000B600B6843F020030B600D4B186010680A
:102FE00040F02000106000BF00BF00BF086840F044
:102FF00020000860086840F48070086000BF00BFCF
:1030000000BF086840F4007008607047280400485A
:10301000140800481449086840F400700860086803
:1030200040F48070086010481038026842F02002B6
:1030300002600E4B22221A600A6842F020020A60E7
:1030400000BF00BF00BF016841F0200101600168BE
:1030500041F48071016000BF00BF00BF016841F40E
:1030600000710160704700002804004814080048FF
:10307000184B10B51A6842F400721A601A6842F4CC
:1030800080721A60134A103A146844F020041460E5
:10309000114C2060186840F02000186000BF00BF8D
:1030A00000BF106840F020001060106840F480708D
:1030B00010602160186840F02000186000BF00BF59
:1030C00000BF106840F020001060106840F480706D
:1030D000106010BD280400481408004870B5124D57
:1030E000044601224FF47F412846FEF798FA0F4E1E
:1030F000012204213046FEF792FA002204213046D4
:10310000FEF78DFA210200222846FEF788FA0122F6
:1031100004213046FEF783FA3046BDE870400022B5
:103120000421FEF77CBA000000080048000C0048AB
:1031300000EB8100006E00F0F84070478068C0F33B
:10314000C00070478068C0F3800070478068C0F39B
:1031500080007047C06810F4406F01D000207047B5
:1031600001207047042303EAD15310B51844436982
:10317000C1F3045107248C40A3438A4013434361A5
:1031800010BD00EB8100016E21F00041114301668A
:103190007047000030B55A482DED048B85B00168AA
:1031A000584CE268891AB1F5967F7BD30068E060DD
:1031B000227855A15A4801F017FB59491820FFF70A
:1031C00045FE04F11D00A57981780379C2788DE868
:1031D0002E004378027853A1514801F005FB504975
:1031E0003020FFF733FEA079FDF7E4F99FED528B15
:1031F00053EC182BFDF7FDF841EC100B50A153ECEC
:10320000102B474801F0F0FA45494820FFF71EFE11
:10321000A079FDF7CFF90D4645EC100B044653ECB1
:10322000182B51EC100BFDF7E4F89FED491B53EC04
:10323000112BFDF737F845EC104B41EC190B53EC13
:10324000182B51EC100BFDF7D4F853EC192BFDF7AC
:1032500042F99FED418B53EC182BFDF7CAF841EC76
:10326000100B3FA153EC102B2D4801F0BDFA2C4957
:103270006020FFF7EBFD01F04FFF00EE100A9FED1D
:103280003C9AB8EE400A20EE090A10EE100AFDF74B
:103290009EF953EC182BFDF7ACF841EC100B53ECF6
:1032A000102B00E028E033A11D4801F09DFA1C49D5
:1032B0009020FFF7CBFD01F03BFF00EE100AB8EEC7
:1032C000400A20EE090A10EE100AFDF780F953ECCF
:1032D000182BFDF78EF841EC100B2AA153EC102BA4
:1032E0000F4801F081FA05B00D49A820BDEC048B10
:1032F000BDE83040FFF7AABD05B0BDEC048B30BD82
:103300003C0000200800002020202069206E756D00
:103310003A20253033642020202020202020000067
:103320004000002045453A257825782578257825E0
:103330007820523A2578000051DA1B7C6132E93F4F
:103340005245535F4B3A25352E32664B0000000044
:1033500000000000000024406666666666660A405B
:10336000564F4C544147453A25362E336656000099
:10337000000080395233385F566F6C3A25362E3351
:10338000665600005233375F566F6C3A25362E333F
:103390006656000030B58BB00024089409942021B3
:1033A00068460A94FCF76CFF1D484FF0A0410425C5
:1033B00001604FF48021C0E90114C4600461C0E9D8
:1033C0000545047744770121016280F82440C462F6
:1033D000046380F83840C46380F84040FDF716FE6F
:1033E00008B1FDF757FA08A90D480894FDF758FAF7
:1033F00008B1FDF74FFA0B48009006200190072016
:1034000002907F200594CDE9030569460448FDF745
:10341000B1FA002801D0FDF73DFA0BB030BD000035
:10342000800000200008302E30B589B02021684689
:10343000FCF726FF19481849002401608902C0E9F9
:103440000114C46004250461C0E90545047744778C
:103450000121016280F82440C462046380F838408E
:10346000C46380F84040FDF7D1FD08B1FDF712FAC2
:103470000B48009006200190072002907F200594C1
:10348000CDE9030569460548FDF774FA002801D027
:10349000FDF700FA09B030BD00010050EC0000203B
:1034A0000080F03E2DE9F04F87B014216846FCF70C
:1034B000E7FE4748C16C41F00401C164C16C01F0F2
:1034C00004010591C16C41F02001C164C16C01F09F
:1034D00020010591C16C41F00101C164C16C01F092
:1034E00001010591C16C41F00201C164C16C01F0A0
:1034F00002010591C16C41F00801C164C06CDFF8A4
:10350000D48000F00800059001224FF47F4140462E
:10351000FEF785F80022DF214046FEF780F84FF4E1
:1035200080764FF09049002231464846FEF777F802
:10353000DFF8A4A0002204215046FEF770F8DFF85F
:103540009CB04FF44877002239465846FEF767F89A
:103550004FF6DF70009001250024CDE90154694643
:1035600040460394FDF772FFCDE900546946484692
:103570000294FDF76BFF2020CDE900046946404628
:103580000294FDF763FF44F20700CDE900046946A9
:1035900058460294FDF75AFF0096CDE9015469465A
:1035A00048460394FDF752FF04200090CDE90154F2
:1035B000694650460394FDF749FF0097CDE9015451
:1035C000694658460394FDF741FF07B0BDE8F08F08
:1035D0000010024000080048000C004800040048A9
:1035E0003EB500240F48009401940D4902940160F7
:1035F00041F63F71C0E9011442F20F718461C1606C
:10360000FEF70FFE08B1FDF745F90094694605483D
:103610000294FEF7B7FD002801D0FDF73BF93EBD4F
:103620000010004058010020184810B516490160EC
:103630004FF416514160002181600C22C160C0E945
:1036400004128161C161016241628162FFF7A4F8E5
:1036500008B1FDF71FF900210C48FEF7A6FF08B1DD
:10366000FDF718F900210948FEF779FF08B1FDF7C9
:1036700011F90648FEF753FF002803D0BDE81040BB
:10368000FDF708B910BD000000380140A40100207A
:10369000FEE77047704730B501210020FFF7E8FCD6
:1036A0004FF47A70FDF7E8F800210120FFF7E0FC05
:1036B00041F290711020FFF7DBFC4FF41C516020A9
:1036C000FFF7D6FC01216120FFF7D2FC0221462042
:1036D000FFF7CEFC48F210011320FFF7C9FC48F2B7
:1036E000FE011220FFF7C4FC4FF4A0610220FFF797
:1036F000BFFC41F230010320FFF7BAFC40F2033473
:1037000021463020FFF7B4FC21463120FFF7B0FC02
:1037100021463220FFF7ACFCE51E29463320FFF797
:10372000A7FC03213420FFF7A3FC21463520FFF737
:103730009FFC14213620FFF79BFC21463720FFF722
:1037400097FC21463820FFF793FC21463920FFF7EC
:103750008FFC29463A20FFF78BFC03213B20FFF723
:1037600087FC21463C20FFF783FC4FF4A0513D200D
:10377000FFF77EFC4FF400719220FFF779FC2146A1
:103780009320FFF775FC40F60D019020FFF770FCC9
:1037900041F218010320FFF76BFCBDE8304040F216
:1037A00073110720FFF764BC10B543F20801E32052
:1037B000FFF75EFC1221E720FFF75AFC41F23121AE
:1037C000EF20FFF755FC00210120FFF751FC4FF4DB
:1037D000E0610220FFF74CFC41F230010320FFF7CB
:1037E00047FC00210420FFF743FC40F2072108209A
:1037F000FFF73EFC00210920FFF73AFC00210A20D8
:10380000FFF736FC00210C20FFF732FC00210D20D1
:10381000FFF72EFC00210F20FFF72AFC00211020CB
:10382000FFF726FC07211120FFF722FC00211220C0
:10383000FFF71EFC00211320FFF71AFCC820FDF73C
:10384000F3FD41F290611020FFF712FC40F22721B6
:103850001120FFF70DFC3220FDF7E6FD1D2112209F
:10386000FFF706FC3220FDF7DFFD4FF40061132067
:10387000FFF7FEFB14212920FFF7FAFB0B212B2079
:10388000FFF7F6FB3220FDF7CFFD00212020FFF7E8
:10389000EFFB00212120FFF7EBFB07213020FFF792
:1038A000E7FB40F207713120FFF7E2FB06213220EF
:1038B000FFF7DEFB40F204713520FFF7D9FB41F63C
:1038C00004713620FFF7D4FB04213720FFF7D0FB2B
:1038D00000213820FFF7CCFB40F206713920FFF7BA
:1038E000C7FB40F201713C20FFF7C2FB0F213D20D6
:1038F000FFF7BEFB00215020FFF7BAFBEF2151205C
:10390000FFF7B6FB00215220FFF7B2FB40F23F1158
:103910005320FFF7ADFB4FF41C516020FFF7A8FBCD
:1039200001216120FFF7A4FB00216A20FFF7A0FB23
:1039300000218020FFF79CFB00218120FFF798FBEE
:1039400000218220FFF794FB00218320FFF790FBEA
:1039500000218420FFF78CFB00218520FFF788FBE6
:1039600010219020FFF784FB00219220FFF780FBBD
:1039700003219320FFF77CFB4FF488719520FFF71C
:1039800077FB00219720FFF773FB00219820FFF7BA
:103990006FFB41F218010320FFF76AFBBDE81040FE
:1039A00040F273110720FFF763BB000008B1044821
:1039B00001E003481030016841F0400101607047A8
:1039C0001804004810B580210348FDF723FE0128A4
:1039D00000D0002010BD00000004004800B585B0F4
:1039E00014216846FCF74CFC8020009000200190D8
:1039F000012002900220039069460248FDF726FD4F
:103A000005B000BD0004004808B1044801E00348C7
:103A10001030016841F080010160704718040048CF
:103A200000B585B014216846FCF72AFC8020009080
:103A30001120019000200290022003906946024864
:103A4000FDF704FD05B000BD000400487047FDF718
:103A5000F1BD10B5A4B038216846FCF711FC142163
:103A60001FA8FCF70DFC44210EA8FCF709FC4FF43D
:103A70000070FDF77BFE0120009000040190022001
:103A80000324CDE907041421CDE90A100C900D9010
:103A900009946846FEF756F90F20CDE91F0400246B
:103AA0002194229403211FA82394FEF701F848F2E1
:103AB0000100CDE90E0440071D900EA8FDF7B4FEED
:103AC00024B010BD0548016841F47001016003494C
:103AD0004FF00060803908607047000088ED00E01A
:103AE0000148FEF70EBC0000580100202DE9F0430C
:103AF0000268234B234D244E244C4FF080499842BA
:103B000007D0484505D0A84203D0B04201D0A0421A
:103B100003D122F070074A683A431D4FDFF874C0A2
:103B2000DFF8748098420DD048450BD0A84209D0E8
:103B3000B04207D0A04205D0B84203D0604501D0C2
:103B4000404503D122F44075CA682A434D6922F0EA
:103B500080022A4302608A68C2620A6882629842CE
:103B600007D0A04205D0B84203D0604501D04045FF
:103B700001D10969016301214161BDE8F0830000C1
:103B8000002C0140000400400008004000340140C7
:103B90000040014000440140004801403FB514A1ED
:103BA000D1E90021CDE9002113A2D2E90012CDE92B
:103BB0000212416EB9B1026891689268C1F3426124
:103BC000520F1DF80240E50002ACA25CB5FBF2F218
:103BD000A0F86A201DF80120615CD200B2FBF1F16F
:103BE000A0F868103FBD0121A0F86A10F8E70000B6
:103BF000010101030701000008040204080101019A
:103C000090F82810C90706D001684A68C36A22F4F0
:103C100000321A434A6090F82810890706D50168D7
:103C20004A68036B22F480321A434A6090F82810E5
:103C3000490706D501684A68436B22F480221A437B
:103C40004A6090F82810090706D501684A68836B16
:103C500022F400421A434A6090F82810C90606D59B
:103C600001688A68C36B22F480521A438A6090F814
:103C70002810890606D501688A68036C22F4005270
:103C80001A438A6090F82810490611D501684A68DD
:103C9000436C22F480121A434A60416CB1F5801FD4
:103CA00006D101684A68836C22F4C0021A434A6054
:103CB00090F82810090606D501684A68C06C22F4FD
:103CC000002202434A607047F8B500260446C0F857
:103CD0008860FDF7A9FC0546206800686FF07E4704
:103CE000000708D52B4600224FF40011204600970C
:103CF00000F009FD60B92068006840070AD52B462E
:103D000000224FF480012046009700F0FCFC08B12F
:103D10000320F8BD2020C4F88000C4F8840084F893
:103D20007C600020F8BD10B5806A0021A0F85E100C
:103D3000A0F85610FEF761FC10BD000001680A688B
:103D400022F490720A6001688A68044B1A408A6003
:103D50002021C0F884100021C1667047FEFFFFEFEC
:103D600010B5B0F86020D0F884300168222B04D060
:103D7000886940F00800886110BD496A836D114070
:103D80001980816D891C8165B0F85E10491EA0F80C
:103D90005E10B0F85E100029EED101680A6822F4C6
:103DA00090720A6001688A6822F001028A6020210C
:103DB000C0F884100021C166FEF7DCFD10BD0000D4
:103DC00070B50446B0F86060D0F88400222805D0B1
:103DD0002068816941F00801816170BDB4F86850C4
:103DE00023E02068406AA16D30400880A06D801CEF
:103DF000A065B4F85E00401EA4F85E00B4F85E0052
:103E000088B92068016821F48071016020688168A8
:103E1000114A114081602020C4F884000020E0662F
:103E20002046FEF7A7FD6D1EADB2002DD9D1B4F826
:103E30005E000028D1D0B4F868108142CDD9206846
:103E4000816821F0805181600448E0662068016843
:103E500041F02001016070BDFEFFFFEF613D0008F1
:103E600010B5B0F86020D0F884300168222B04D05F
:103E7000886940F00800886110BD496A1140826D70
:103E80001170816D491C8165B0F85E10491EA0F863
:103E90005E10B0F85E100029EED101680A6822F4C5
:103EA00090720A6001688A6822F001028A6020210B
:103EB000C0F884100021C166FEF75CFD10BD000053
:103EC00070B50446B0F86060D0F88400222805D0B0
:103ED0002068816941F00801816170BDB4F86850C3
:103EE00023E02068406AA16D30400870A06D401C3E
:103EF000A065B4F85E00401EA4F85E00B4F85E0051
:103F000088B92068016821F48071016020688168A7
:103F1000114A114081602020C4F884000020E0662E
:103F20002046FEF727FD6D1EADB2002DD9D1B4F8A5
:103F30005E000028D1D0B4F868108142CDD9206845
:103F4000816821F0805181600448E0662068016842
:103F500041F02001016070BDFEFFFFEF613E0008EF
:103F60002DE9F05F0446016880682369E56918431C
:103F7000636900272B431843636EFA4A03430868BA
:103F8000F94D28401843086020684168E36821F42F
:103F90004051194341602168A069914201D0236AD0
:103FA00018438B68F14D2B4003438B602068C16A36
:103FB000636A21F00F011943C162ED4B2068ED499E
:103FC00098420DD1D1F8881011F0030106D00129D3
:103FD0005AD0022956D003293FD157E001253DE0B0
:103FE000E54B98420BD1D1F8881011F00C0147D065
:103FF000042949D0082945D00C292ED146E0DF4BB1
:1040000098420BD1D1F8881011F0300138D0102926
:104010003AD0202936D030291FD137E0D84B9842EA
:104020000BD1D1F8881011F0C00129D040292BD034
:10403000802927D0C02910D128E090420DD1D1F895
:10404000881011F440611BD0B1F5806F1CD0B1F520
:10405000006F17D0B1F5406F18D01025DFF824A3FA
:104060004FF480764FF000094FF4004B90426ED130
:1040700075B1022D29D0042D59D0082D68D176E0D4
:104080000025EBE70225E9E70425E7E70825E5E752
:10409000FDF7FCFD4DE0012851D0022851D0032846
:1040A00051D0042851D0052853D0062853D00728D2
:1040B00053D0082853D0092853D00A2853D00B28AE
:1040C00053D03AE0B1FBF0F06CE0606AA8B101288F
:1040D00017D0022817D0032817D0042817D0052896
:1040E00017D0062817D0072817D0082817D0092876
:1040F00017D00A2817D00B2817D00120BAFBF0F0F0
:1041000050E00220FAE70420F8E70620F6E708204E
:10411000F4E70A20F2E70C20F0E71020EEE7202079
:10412000ECE74020EAE78020E8E73046E6E7FDF7E5
:10413000D1FD0146606A0028ADD10120C2E702200E
:10414000C0E70420BEE70620BCE70820BAE761E12B
:104150004AE00A20B6E70C20B4E71020B2E720209E
:10416000B0E74020AEE78020ACE73046AAE7606ABF
:10417000A8B1012822D0022822D0032822D0042866
:1041800022D0052822D0062822D0072822D00828AD
:1041900022D0092822D00A2822D00B2822D00120A0
:1041A000BBFBF0F0002820D06168884601EB41019C
:1041B000814219D8B0EB083F16D817E00220EFE78C
:1041C0000420EDE70620EBE70820E9E70A20E7E70F
:1041D0000C20E5E71020E3E72020E1E74020DFE7BF
:1041E0008020DDE73046DBE7012739E27DB3022D91
:1041F00061D0042D7DD0082DF6D1606AA8B10128C8
:1042000078D0022877D0032876D0042875D00528E6
:1042100074D0062873D0072872D0082871D00928D6
:1042200070D00A286FD00B2800D0012632464D46A8
:10423000002358460021FBF7EBFF090241EA106119
:1042400002024FEA580010186941424670E0FFE749
:10425000FDF71CFD0146606AA8B1012817D00228AD
:1042600017D0032817D0042817D0052817D0062800
:1042700017D0072817D0082817D0092817D00A28E0
:1042800017D00B2800D0012632464D468CE002267E
:10429000FAE70426F8E70626F6E70826F4E70A26F2
:1042A000F2E70C26F0E71026EEE72026ECE74026A2
:1042B000EAE78026E8E7606AA8B1012824D002284E
:1042C00024D0032824D0042824D0052824D006286C
:1042D00024D0072824D0082824D0092824D00A284C
:1042E00024D00B2800D0012632464D4600235046EC
:1042F000A0E726E07AE07BE07CE07DE07EE07FE006
:1043000080E081E082E083E00226EDE70426EBE72F
:104310000626E9E70826E7E70A26E5E70C26E3E7AD
:104320001026E1E72026DFE74026DDE78026DBE7F1
:104330000023FBF76DFF144AA0F54071914271D93B
:1043400052E7FDF7C7FC0146606A50B3012839D037
:10435000022839D0032839D0042839D0052839D08B
:10436000062813E000800040F369FFCFFFF4FF113F
:104370000038014000100240004400400048004066
:10438000004C00400024F400FFFC0F0024D007285C
:1043900024D0082824D0092824D00A2824D00B2887
:1043A00000D001264D463246002308461946FBF749
:1043B0002FFF0902626841EA1061030250081818D1
:1043C0006941B5E70226EDE70426EBE70626E9E7B3
:1043D0000826E7E70A26E5E70C26E3E71026E1E7EB
:1043E0002026DFE74026DDE78026DBE702261DE703
:1043F00004261BE7062619E7082617E70A2615E70D
:104400000C2613E7102611E720260FE740260DE7BC
:1044100080260BE7E0694FF6EF78584570D1092DFB
:104420008ED200E01AE1DFE805F006093C058005C0
:1044300005058300D8E6FDF729FC01E0FDF738FC0F
:104440000146606AA8B1012815D0022815D00328BA
:1044500015D0042815D0052815D0062815D0072812
:1044600015D0082815D0092815D00A2815D00B28F2
:1044700014D0012612E0022610E004260EE00626E3
:104480000CE008260AE00A2608E00C2606E01026C2
:1044900004E0202602E0402600E08026B1FBF6F092
:1044A0001AE0606AA8B101282BD002282BD003287B
:1044B0002BD004282BD005282BD006282BD007285A
:1044C0002BD008282BD009282BD00A282BD00B283A
:1044D00000D00126BAFBF6F04100606801EB500104
:1044E000B1FBF0F080B2A0F110014145A2D84FF627
:1044F000F0710140C0F3420001432068C160AFE0A9
:1045000046E00226E6E70426E4E70626E2E7082678
:10451000E0E70A26DEE70C26DCE71026DAE72026AD
:10452000D8E74026D6E78026D4E7FDF7D3FB87E718
:10453000606AA8B1012817D0022817D0032817D025
:10454000042817D0052817D0062817D0072817D019
:10455000082817D0092817D00A2817D00B2800D010
:104560000126BBFBF6F0B7E70226FAE70426F8E7D8
:104570000626F6E70826F4E70A26F2E70C26F0E717
:104580001026EEE72026ECE74026EAE78026E8E75B
:10459000092DBFF4D5AEDFE805F006093C0583051B
:1045A0000505860020E6FDF771FB01E0FDF780FBC5
:1045B0000146606AA8B1012815D0022815D0032849
:1045C00015D0042815D0052815D0062815D00728A1
:1045D00015D0082815D0092815D00A2815D00B2881
:1045E00014D0012612E0022610E004260EE0062672
:1045F0000CE008260AE00A2608E00C2606E0102651
:1046000004E0202602E0402600E08026B1FBF6F11F
:104610001AE0606AA8B101282ED002282ED0032803
:104620002ED004282ED005282ED006282ED00728DC
:104630002ED008282ED009282ED00A282ED00B28BC
:1046400000D00126BAFBF6F1606801EB5001B1FB26
:10465000F0F080B2A0F110014145A3D82168C860F4
:104660000120A4F86A0024F8680F3846C4F80490C2
:10467000C4F80890BDE8F09F0226E3E70426E1E7CE
:104680000626DFE70826DDE70A26DBE70C26D9E762
:104690001026D7E72026D5E74026D3E78026D1E7A6
:1046A000FDF718FB84E7606AA8B1012817D002283B
:1046B00017D0032817D0042817D0052817D00628AC
:1046C00017D0072817D0082817D0092817D00A288C
:1046D00017D00B2800D00126BBFBF6F1B4E7022669
:1046E000FAE70426F8E70626F6E70826F4E70A269E
:1046F000F2E70C26F0E71026EEE72026ECE740264E
:10470000EAE78026E8E72DE9F041984617460E468D
:104710000446069D08E0681C06D0FCF785FFA0EB68
:104720000800A8420BD855B12068C06936EA0000DD
:1047300019D00020B842EED00020BDE8F0812068FA
:10474000016821F4D07101602068816821F00101C5
:1047500081602020C4F88000C4F88400002084F820
:104760007C000320E9E70120E4E700000148FDF7B1
:1047700045BF0000A4010020FEE7000010B511486D
:104780000168114C2269891AB1F5FA7F18D30068C3
:1047900020610EA11248626900F026F81048FBF76C
:1047A0007AFD82B232230E490E48FEF7F9F86069AD
:1047B000401CA0F51C516061103901D100206061DE
:1047C00010BD00003C0000200800002025303464AB
:1047D0003A48656C6C6F2C776F726C642E0D0A0012
:1047E00055000020A40100200FB4084B10B504A907
:1047F00002AA039800F0EEF8044602A9002000F097
:1048000080FC204610BC5DF814FB0000035100083A
:104810000907090E002804DB00F1E02080F80014ED
:10482000704700F00F0000F1E02080F8141D704781
:1048300002E008C8121F08C1002AFAD17047704769
:10484000002001E001C1121F002AFBD170470000C7
:104850002DE9FF5F82B00021DDE90430020DDDF8B3
:1048600040B0034318D044F61050A2F2FF32424346
:104870001514119801281FD0A5EB0B00401C5FEA0E
:10488000000A4FF000064E4FDFF83891B046504610
:1048900015D5CAF1000413E0119801244AA3012898
:1048A00001D16FEA0B010298119AC0E90031C0E909
:1048B000024206B0BDE8F09FCBF10000DFE70446FE
:1048C0000021404A491842EB0450CDE9001012E0A3
:1048D000E00707D032463B4640464946FBF789FD94
:1048E0008046894632463B4610461946FBF781FD15
:1048F00006460F466410002CEAD1DDE90401DDE92B
:104900000023BAF1000F06DAFBF773FD42464B466F
:10491000FBF76FFD05E0FBF7DEFD42464B46FBF77C
:10492000DAFD04460E460022284BFBF737FF03D87A
:104930004FF0FF30014607E00022254B204631466C
:10494000FBF7B0FCFBF712FF102409E0002C0ADB98
:104950000A220023FBF75CFC039B30321A55641ECD
:1049600050EA0102F2D1641C039AC4F11103144409
:10497000119A012A03D0012208430DD10AE008430D
:1049800004D000204FF0110B119072E7A3EB0B0540
:104990006D1E0DE05B4504DD4FF0000205F10105E1
:1049A00004E003DA4FF00002A5F10105002AECD083
:1049B00002981199C0E90231C0E9004579E7000089
:1049C000000014400000F03F300000000000F04301
:1049D0000000E03F2DE9FF4F95B09B468946064613
:1049E00000250FE2252877D100242746F84A012127
:1049F000059400E0044316F8013F203B01FA03F060
:104A00001042F7D130782A2811D06FF02F03307878
:104A1000A0F13002092A16D8059A44F0020402EBEC
:104A2000820203EB42021044761C0590EFE759F82E
:104A3000042B0592002A03DA504244F400540590F6
:104A400044F00204761C30782E2816D116F8010F97
:104A500044F004042A280DD06FF02F023078A0F122
:104A60003003092B09D807EB870302EB4303C71870
:104A7000761CF3E759F8047B761C30786C280FD04D
:104A800006DC4C2817D068280DD06A2814D104E021
:104A9000742810D07A280FD10DE044F400140AE0F5
:104AA00044F4801401E044F440147278824202D14C
:104AB00004F58014761C761C307866280BD013DC45
:104AC000582877D009DC002875D04528F6D046282C
:104AD000F4D047281AD19DE118E0632835D0642826
:104AE00079D0652812D195E1702873D008DC672849
:104AF000F1D069286FD06E280DD06F2806D1B5E0AF
:104B000073282CD0752875D0782874D05A461799F8
:104B100090476D1C75E1C4F30250022809D00328A8
:104B20000DD0D9F8001004280DD00D6009F104094A
:104B300067E1D9F80010EA17C1E90052F6E7D9F8A1
:104B400000100D80F2E70D70F0E719F8041B8DF8E6
:104B5000001000208DF80100EA46012003E059F81A
:104B600004AB4FF0FF3061074FF0000102D40DE0BD
:104B700008F101018846B9420FDA8045F8DB1AF8DE
:104B800008100029F4D108E008F1010188468142AB
:104B9000FADB1AF808100029F6D105985B46A0EB5D
:104BA000080721463846179A00F094FA284400EB8B
:104BB000080507E04DE029E10DE01AF8010B5A461F
:104BC00017999047B8F10108F7D25B46214638465D
:104BD000179A13E142E00A220092C4F302524FF006
:104BE000000A022A08D059F804CB032A4FEAEC71D4
:104BF0000AD00DE029E02AE009F1070121F00702BF
:104C0000F2E802C1914609E00FFA8CFC4FEAEC7120
:104C1000042A03D14FFA8CFC4FEAEC71002907DA21
:104C20000A460021DCF1000C61EB02012D2202E0BA
:104C3000220504D52B228DF80420012203E0E2078F
:104C400001D02022F7E7904659E00A2102E0102225
:104C50000DE010214FF0000A00910BE010224FF000
:104C6000000A44F004040827009203E008224FF0F1
:104C7000000A0092C4F30252022A05D059F804CB6C
:104C80000021032A08D009E009F1070121F00702F9
:104C9000F2E802C1914605E01FFA8CFC042A01D11A
:104CA0000CF0FF0C4FF00008220728D5702806D022
:104CB000009B83F0100353EA0A0305D00EE0402264
:104CC0008DF80420012208E05CEA010206D03022BF
:104CD0008DF804208DF8050002229046009B83F099
:104CE000080353EA0A030AD15CEA010201D1620710
:104CF00005D530228DF804204FF001087F1E58287A
:104D000004D034A003900EA802900DE036A0F9E77D
:104D100053466046009AFBF77BFA84460398825C10
:104D20000298401E029002705CEA0100F0D10298E5
:104D300006A9081A00F1200A600702D524F480347D
:104D400000E00127574502DDA7EB0A0000E0002044
:104D500000EB0A01009005984144401A0590E003D9
:104D600006D45B462146179A059800F0B3F905442E
:104D7000002706E001A85A46C05D179990476D1CB0
:104D80007F1C4745F6DBE0030CD55B462146179AAE
:104D9000059800F09FF9054404E030205A46179921
:104DA00090476D1C0099481E00900029F5DC08E032
:104DB000029802995A460078491C02911799904727
:104DC0006D1CBAF10001AAF1010AF1DC65E10000F5
:104DD00009280100303132333435363738396162D1
:104DE0006364656600000000303132333435363795
:104DF00038394142434445460000000000F058F96C
:104E00000544761C307800287FF4ECAD19B02846B4
:104E1000BDE8F08F620700D4062709F1070222F0EF
:104E2000070CFCE80223E14603F000485FEA080CA7
:104E300002D00FF2702C0DE05FEA045C02D50FF295
:104E4000682C07E05FEAC47C02D00FF2602C01E01E
:104E5000AFF2700C4FF0FF3823F00043CDF850C094
:104E600065280CD006DC452809D046281DD04728E7
:104E70003DD13DE0662818D067287ED138E000217A
:104E8000112F01DB112000E0781CCDE9000106A9FB
:104E90000EA8FFF7DDFCDDE90F010E9A039100215A
:104EA000009207F1010A04914DE04FF00040009795
:104EB000CDE9011006A90EA8FFF7CAFCDDE90F0233
:104EC00003920E9B11990022DDF80CA0009304922E
:104ED00011B9791C00EB010AB7EB0A0004D4C0F148
:104EE000FF3007F1010A0490AAEB0700019044E0AB
:104EF000012F00DA01270021112F01DD112000E030
:104F00003846CDE9000106A90EA8FFF7A1FCDDE9AE
:104F10000F010E9A0391002104910092BA462107D5
:104F20000CD40399514500DA8A46BAF1010F05DD28
:104F3000009AAAF10101515C302908D0B84202DA86
:104F400010F1040F06DA0121CDE9011015E0AAF1F4
:104F50000101E9E7002805DC049901440491AAEB6A
:104F6000000102E0411C514500DD8A460499401AC7
:104F7000401C01904FF000400290200704D401989B
:104F8000504501DBCDF8048000208DF84F000298D9
:104F90000DF14F07B0F1004F25D02B200E90029855
:104FA0004FF0020800280CDA404202902D200E90AB
:104FB00007E00A210298FBF735FB3031029007F831
:104FC000011DB8F10001A8F10108F2DC02980028E7
:104FD000EFD1791E0E980870307800F0200040F074
:104FE000450007F8020D12A8C01B00F1070814982D
:104FF000007800B1012000EB0A01019801EBE0719B
:1050000005984144401A401E0590E00306D45B46D3
:105010002146179A059800F05DF805441498007829
:1050200018B15A46179990476D1CE00324D55B468A
:105030002146179A059800F04DF805441CE00498A5
:10504000002807DBDDE90301884203DD0098405CAE
:10505000179901E0179930205A469047049805F1B6
:105060000105401C04900198401E019004D12E209F
:105070005A46179990476D1CBAF10001AAF1010A2E
:10508000DDDC05E017F8010B5A46179990476D1CB7
:10509000B8F10001A8F10108F4DC5B462146179A3B
:1050A0000598ABE62D0000002B000000200000005A
:1050B0002DE9F041044600251E461746880404D415
:1050C00005E039462020B0476D1C641EF9D52846FE
:1050D000BDE8F0812DE9F041044600251E469046CA
:1050E000C80301D5302700E02027880404D505E057
:1050F00041463846B0476D1C641EF9D52846BDE8C8
:10510000F0810A68531C0B6010707047002100E0AA
:10511000491C8142FCD3704710B50448FCF7CEF817
:105120000248FBF739FE80B210BD0000800000206D
:1051300010B50448FCF7C2F80248FBF72DFE80B218
:1051400010BD0000EC00002070B515460E46044668
:10515000FDF71AFDA020FDF7D8FCFDF74BFD30460A
:10516000FDF7D3FCFDF746FDFDF70EFDA120FDF791
:10517000CCFCFDF73FFD09E0FDF788FC04F8010BCE
:1051800015B1FDF7AAFC01E0FDF7E6FC6D1EEDB2DE
:10519000F2D2BDE87040FDF712BD000070B51546B3
:1051A0000E460446FDF7F0FCA020FDF7AEFCFDF72F
:1051B00021FD304602E000BF14F8010BFDF7A5FC0D
:1051C000FDF718FD6D1EEDB2F6D2FDF7F8FCBDE857
:1051D00070404FF4FA70FFF799BF0000FCF732FA05
:1051E000FEF737FCFEF75EF9FEF7D4F8FEF71CFA7F
:1051F000FEF71AF9FEF7F4F9FDF76AFEFDF730FC49
:105200001F20FDF7BDFD1F20FDF7BCFE4FF6FF7010
:10521000FDF7CCFE052200211248FFF7BFFF012059
:10522000FCF702F90F4805220021401DFFF78CFF13
:10523000772000F02EF800F01BF80A491839887121
:105240000948FDF73DF80749012213390748FDF7E2
:1052500013FB00BFFDF7F6FCFDF79CFFFFF78EFA8E
:10526000F8E700002000002058010020A4010020E1
:1052700010B5FDF789FC5F20FDF747FCFDF7BAFC90
:10528000FDF704FC0446FDF767FCFDF798FC20469B
:1052900010BD10B50446FDF777FC5E20FDF735FC28
:1052A000FDF7A8FC2046FDF730FCFDF7A3FCBDE8A8
:1052B0001040FDF784BC000000000000000000006A
:1052C00000000000000000000000000000000000DE
:1052D00000000000000000000000000000000000CE
:1052E00000000000000000008001800180018001BA
:1052F00080018001800180018001800180018001A6
:10530000800100000000800180010000000000001A
:1053100000000000000000000000CC00CC00CC0029
:10532000CC00CC00CC000000000000000000000019
:10533000000000000000000000000000000000006D
:10534000000000000000000000000000000000005D
:105350000000600C600C600C30063006FE1FFE1F63
:10536000300638071803FE1FFE1F180318038C01B0
:105370008C018C01000000008000E003F80F9C0EFF
:105380008C1C8C188C009800F801E007800E801CA3
:105390008C188C189C18B80CF00FE003800080006B
:1053A0000000000000000000000000000E181B0CB0
:1053B000110C11061106110311039B018E01C03857
:1053C000C06C60446044304430441844186C0C385D
:1053D0000000000000000000E001F003380718069C
:1053E00018063003F001F000F8009C310E33061E61
:1053F000061C061C063FFC73F021000000000000A4
:10540000000000000000000000000C000C000C0078
:105410000C000C000C000000000000000000000068
:10542000000000000000000000000000000000007C
:105430000000000000000000000200038001C00026
:10544000C0006000600030003000300030003000EC
:1054500030003000300060006000C000C0008001FB
:10546000000300020000000020006000C000800176
:105470008001000300030006000600060006000687
:105480000006000600060003000380018001C00042
:10549000600020000000000000000000000000008C
:1054A0000000C000C000D806F807E001300338074C
:1054B00000000000000000000000000000000000EC
:1054C00000000000000000000000000000000000DC
:1054D000000080018001800180018001FC3FFC3FD1
:1054E0008001800180018001800100000000000037
:1054F00000000000000000000000000000000000AC
:10550000000000000000000000000000000000009B
:105510000000000000000000800180010001000187
:1055200080000000000000000000000000000000FB
:105530000000000000000000000000000000E00784
:10554000E007000000000000000000000000000074
:10555000000000000000000000000000000000004B
:10556000000000000000000000000000000000003B
:105570000000000000000000C000C00000000000AB
:105580000000000000000000000C000C00060006F7
:1055900000060003000300038003800180018001F6
:1055A000C000C000C00060006000000000000000FB
:1055B0000000000000000000E003F007380E180CA7
:1055C0000C180C180C180C180C180C180C180C18BB
:1055D0000C18180C380EF007E00300000000000063
:1055E000000000000000000000018001C001F00187
:1055F0009801880180018001800180018001800183
:105600008001800180018001800100000000000015
:105610000000000000000000E003F80F180C0C1858
:105620000C1800180018000C000600038001C000D0
:10563000600030001800FC1FFC1F0000000000008C
:105640000000000000000000E001F807180E0C0C3C
:105650000C0C000C0006C003C007000C001800185A
:105660000C180C18180CF807E003000000000000EC
:105670000000000000000000000C000E000F000FF2
:10568000800DC00C600C600C300C180C0C0CFC3F36
:10569000FC3F000C000C000C000C0000000000009F
:1056A0000000000000000000F80FF80F18001800BC
:1056B0000C00EC03FC071C0E001C0018001800185E
:1056C0000C181C0C180EF807E00300000000000086
:1056D0000000000000000000C007F00F381C181880
:1056E00018000C00CC03EC0F3C0E1C1C0C180C1802
:1056F0000C18181C380EF007E00300000000000032
:105700000000000000000000FC1FFC1F000C000651
:105710000006000380038001C001C000E0006000BB
:105720006000700030003000300000000000000019
:105730000000000000000000E003F007380E180C25
:10574000180C180C3806F007F007180C0C180C1879
:105750000C180C18380CF80FE003000000000000D3
:105760000000000000000000E003F007380E1C0CF1
:105770000C180C180C181C1C381EF81BE01900180B
:10578000000C000C1C0EF807F001000000000000E7
:105790000000000000000000000000000000000009
:1057A00000008001800100000000000000000000F7
:1057B00000000000000080018001000000000000E7
:1057C00000000000000000000000000000000000D9
:1057D00000008001800100000000000000000000C7
:1057E0000000000000008001800100010001800035
:1057F00000000000000000000000000000000000A9
:105800000000000000000010001C800FE003F80002
:105810001800F800E003800F001C001000000000DA
:105820000000000000000000000000000000000078
:10583000000000000000F81F000000000000F81F3A
:105840000000000000000000000000000000000058
:105850000000000000000000000000000000000048
:1058600000000000000008003800F001C007001F21
:105870000018001FC007F0013800080000000000F9
:105880000000000000000000E003F80F180C0C18E6
:105890000C180018000C000600038001C000C000B6
:1058A000C00000000000C000C000000000000000B8
:1058B00000000000000000000000E00718180420AD
:1058C000C229224A114409440944094409221113F6
:1058D000E20C024004201818E0070000000000005D
:1058E000000000000000000080038003C006C00626
:1058F000C006600C600C301830183018F83FF83FC4
:105900001C700C600C6006C006C0000000000000A7
:105910000000000000000000FC03FC0F0C0C0C1841
:105920000C180C180C0CFC07FC0F0C180C300C306D
:105930000C300C300C18FC1FFC07000000000000AD
:105940000000000000000000C007F01F38381C30C5
:105950000C70066006000600060006000600060041
:1059600006600C701C30F01FE00700000000000013
:105970000000000000000000FE03FE0F060E0618E7
:10598000061806300630063006300630063006307F
:1059900006180618060EFE0FFE03000000000000A9
:1059A0000000000000000000FC3FFC3F0C000C0069
:1059B0000C000C000C00FC1FFC1F0C000C000C0069
:1059C0000C000C000C00FC3FFC3F0000000000003D
:1059D0000000000000000000F83FF83F1800180029
:1059E000180018001800F81FF81F180018001800F9
:1059F000180018001800180018000000000000002F
:105A00000000000000000000E00FF83F3C780E604E
:105A100006E007C00300030003FE03FE03C007C047
:105A200006C00EC03CF0F83FE00F00000000000090
:105A300000000000000000000C300C300C300C3076
:105A40000C300C300C30FC3FFC3F0C300C300C3078
:105A50000C300C300C300C300C300000000000001A
:105A60000000000000000000800180018001800132
:105A7000800180018001800180018001800180011E
:105A80008001800180018001800100000000000091
:105A900000000000000000000006000600060006EE
:105AA00000060006000600060006000600060006C6
:105AB000180618063807F003E00100000000000097
:105AC000000000000000000006300618060C060664
:105AD00006038601C60066007600DE008E0106031E
